:100000000C942A000C9447000C9447000C94470071
:100010000C9447000C9447000C9447000C94A102E8
:100020000C9447000C9447000C940C020C9447006D
:100030000C9447000C9447000C9447000C94470024
:100040000C9447000C9447000C9447000C94470014
:100050000C94470011241FBECFE5D8E0DEBFCDBF12
:1000600010E0A0E6B0E0E0EDF6E002C005900D92F1
:10007000AA37B107D9F720E0AAE7B0E001C01D9286
:10008000A33AB207E1F70E94F4020C9466030C94C1
:10009000000084EA86BF06B607FEFDCF089584E916
:1000A00086BF06B604FCFDCF089583B984E886BFF9
:1000B00006B607FEFDCF08958CE580B980E486BFC3
:1000C00008951F93CF93DF93D82FC62F0E94490026
:1000D0008EE40E9455001D2F107F1C2B812F8C60F9
:1000E0000E945500812F8B7F88600E94550020E17F
:1000F000D29FC0011124C82B8C2F8C600E94550008
:100100008C2F8B7F88600E9455000E944F00DF91EA
:10011000CF911F91089560E083E30E94610060E049
:1001200082E30E94610060E088E20E94610060E07A
:1001300086E00E94610060E08CE00E94610060E067
:1001400081E00E9461008FE39FE10197F1F700C019
:10015000000008950F931F93CF938C01C0E00AC055
:10016000CF5F61E00E946100CF3021F460E080EC5D
:100170000E946100F801EC0FF11D80818111F0CF28
:1001800060E08CE00E946100CF911F910F91089573
:1001900060E080EC0E946100089590E020E030E093
:1001A0000BC0E92FF0E0EE0FFF1FE757FF4F408134
:1001B0005181240F351F9F5F9A3098F3C90108952C
:1001C000FC012091A1009DEC299F212D1124269551
:1001D0002695269520832091A100299F912D1124F9
:1001E000969596959695990F392F330F330F930F58
:1001F000291B218308950F931F93CF93DF93FC0155
:10020000AB019B0136952795369527953695279511
:10021000A5ECB0E20E945703929582958F708927D2
:100220009F70892780838A011695079516950795F3
:100230009801ABE7B4E10E945703EC01D695C7954E
:100240009E01ADECBCEC0E94570396958795969560
:100250008795969587959C01220F331F880F991FCC
:10026000880F991F880F991F820F931F9E01281BCB
:10027000390B218324E62C9FC0012D9F900D112462
:10028000481B590B9A01ADECBCEC0E945703EC01E2
:10029000D695C795D695C795D695C795C283CE01F5
:1002A000880F991FCC0FDD1FCC0FDD1FCC0FDD1F7A
:1002B000C80FD91F4C1B5D0B4383DF91CF911F915A
:1002C0000F9108950F931F93CF93DF9360E081E028
:1002D0000E9461000E94CD008C012FEF81EE94E01E
:1002E000215080409040E1F700C00000B8018DE946
:1002F00090E00E94FB0087E690E00E94AA00CDE912
:10030000D0E0888161E0805D0E94610061E08EE262
:100310000E946100898161E0805D0E9461008A81A4
:1003200061E0805D0E9461008B8161E0805D0E94E0
:1003300061008DE690E00E94AA00CE010E94E000DC
:100340008881882329F061E0805D0E94610004C0FB
:1003500061E080E20E946100CDE9D0E0898161E046
:10036000805D0E9461000E94C80082E790E00E94C8
:10037000AA00B801CE010E94FB00888161E0805D87
:100380000E946100898161E0805D0E9461008A8134
:1003900061E0805D0E94610061E08EE20E94610088
:1003A0008B8161E0805D0E94610087E790E00E94A0
:1003B000AA00DF91CF911F910F91089520E00EC008
:1003C000822F90E0FC01EE0FFF1FE757FF4F1182D5
:1003D0001082FC01E258FF4F10822F5F283080F31B
:1003E000E9E8F0E0118A108A138A128A10928800D4
:1003F00010928600109287001092A10081E08093F5
:10040000660080E006C0E82FF0E0E356FF4F108260
:100410008F5F8430C0F308951F920F920FB60F9232
:1004200011242F933F934F935F938F939F93EF9359
:10043000FF9380917D0091E0980F90937D0087302D
:1004400011F410927D0080918800823019F51FC050
:1004500020917B0030917C00A9014F5F5F4F50934A
:100460007C0040937B00E82FF0E0EE0FFF1FE05A86
:10047000FF4F408151812417350739F491E0909363
:10048000880010927C0010927B008F5F01C080E09A
:100490008230F0F280918800833009F045C0E0910D
:1004A0008700F0E0EE0FFF1FE757FF4F808191813B
:1004B00001969183808320E035C086B3422F50E0BF
:1004C00090E0022E02C0959587950A94E2F780FD90
:1004D00015C0FA01E258FF4F8081882319F081305E
:1004E00039F01FC0FA01E258FF4F81E0808319C044
:1004F000FA01E258FF4F82E0808313C0FA01E2580C
:10050000FF4F8081833019F0843039F00AC0FA013E
:10051000E258FF4F84E0808304C0FA01E258FF4FA5
:1005200010822F5F283048F2FF91EF919F918F91B9
:100530005F914F913F912F910F900FBE0F901F90A1
:1005400018951F920F920FB60F9211242F933F937D
:100550004F935F936F937F938F939F93AF93BF93CB
:10056000EF93FF93809186008130C1F018F08330C3
:10057000E9F029C086B38F3F31F180917A0091E094
:10058000980F90937A00883CF1F481E08093860084
:1005900082E08093880010927A0015C080918700D5
:1005A0008A3089F483E0809386000DC00E94620146
:1005B0000E94DE012FEF83ED90E3215080409040B8
:1005C000E1F700C00000FF91EF91BF91AF919F91C3
:1005D0008F917F916F915F914F913F912F910F90EC
:1005E0000FBE0F901F9018958FEF8ABB8BBB17BA69
:1005F00088BB8CE083BF89E08EBD80E89EE39BBD15
:100600008ABD8AEF8CBF0E945C000E948B0089B774
:10061000826189BF7894809186008130E1F7809172
:100620008800813089F420917D002093A20081E030
:1006300090E002C0880F991F2A95E2F780958BBB46
:1006400083E080938800E7CF80918800833019F79A
:100650002AC0282F30E0F901E258FF4F90819230F4
:1006600001F59091A200891312C09FEF9BBB90915E
:10067000870041E0490F409387009A3021F493E0CE
:100680009093860009C092E09093880005C09091F5
:10069000A1009F5F9093A100F901E258FF4F93E002
:1006A00090838F5F01C080E0883098F2B4CFA29F22
:1006B000B001B39FC001A39F700D811D1124911D36
:1006C000B29F700D811D1124911D0895F894FFCFE4
:1006D000E803D007A00F0153554D413A0073204263
:0A06E0003A004156473A006D7300DE
:00000001FF
